{
  "contractName": "poultry",
  "abi": [
    {
      "inputs": [],
      "stateMutability": "nonpayable",
      "type": "constructor"
    },
    {
      "inputs": [
        {
          "internalType": "string",
          "name": "_fullname",
          "type": "string"
        },
        {
          "internalType": "string",
          "name": "_email",
          "type": "string"
        },
        {
          "internalType": "string",
          "name": "_password",
          "type": "string"
        }
      ],
      "name": "addUser",
      "outputs": [
        {
          "internalType": "bool",
          "name": "",
          "type": "bool"
        }
      ],
      "stateMutability": "nonpayable",
      "type": "function"
    },
    {
      "inputs": [
        {
          "internalType": "string",
          "name": "_email",
          "type": "string"
        }
      ],
      "name": "getUserByEmail",
      "outputs": [
        {
          "internalType": "string",
          "name": "",
          "type": "string"
        },
        {
          "internalType": "string",
          "name": "",
          "type": "string"
        },
        {
          "internalType": "string",
          "name": "",
          "type": "string"
        },
        {
          "internalType": "bool",
          "name": "",
          "type": "bool"
        }
      ],
      "stateMutability": "view",
      "type": "function",
      "constant": true
    },
    {
      "inputs": [
        {
          "internalType": "string",
          "name": "_email",
          "type": "string"
        },
        {
          "internalType": "string",
          "name": "_password",
          "type": "string"
        }
      ],
      "name": "userLogin",
      "outputs": [
        {
          "internalType": "bool",
          "name": "",
          "type": "bool"
        }
      ],
      "stateMutability": "view",
      "type": "function",
      "constant": true
    }
  ],
  "bytecode": "0x608060405234801561001057600080fd5b50610c8e806100206000396000f3fe608060405234801561001057600080fd5b50600436106100415760003560e01c806318046ae1146100465780635b4a3abe1461007957806395c5fed4146100a9575b600080fd5b610060600480360381019061005b919061060c565b6100d9565b60405161007094939291906106ef565b60405180910390f35b610093600480360381019061008e9190610749565b610301565b6040516100a091906107c1565b60405180910390f35b6100c360048036038101906100be91906107dc565b6103c1565b6040516100d091906107c1565b60405180910390f35b60608060606000806000866040516100f191906108bf565b908152602001604051809103902060405180608001604052908160008201805461011a90610905565b80601f016020809104026020016040519081016040528092919081815260200182805461014690610905565b80156101935780601f1061016857610100808354040283529160200191610193565b820191906000526020600020905b81548152906001019060200180831161017657829003601f168201915b505050505081526020016001820180546101ac90610905565b80601f01602080910402602001604051908101604052809291908181526020018280546101d890610905565b80156102255780601f106101fa57610100808354040283529160200191610225565b820191906000526020600020905b81548152906001019060200180831161020857829003601f168201915b5050505050815260200160028201805461023e90610905565b80601f016020809104026020016040519081016040528092919081815260200182805461026a90610905565b80156102b75780601f1061028c576101008083540402835291602001916102b7565b820191906000526020600020905b81548152906001019060200180831161029a57829003601f168201915b505050505081526020016003820160009054906101000a900460ff161515151581525050905080600001518160200151826040015183606001519450945094509450509193509193565b6000808360405161031291906108bf565b908152602001604051809103902060030160009054906101000a900460ff1680156103a857508160405160200161034991906108bf565b6040516020818303038152906040528051906020012060008460405161036f91906108bf565b908152602001604051809103902060020160405160200161039091906109ce565b60405160208183030381529060405280519060200120145b156103b657600190506103bb565b600090505b92915050565b600080836040516103d291906108bf565b908152602001604051809103902060030160009054906101000a900460ff16156103ff57600090506104ab565b60405180608001604052808581526020018481526020018381526020016001151581525060008460405161043391906108bf565b908152602001604051809103902060008201518160000190816104569190610b86565b50602082015181600101908161046c9190610b86565b5060408201518160020190816104829190610b86565b5060608201518160030160006101000a81548160ff021916908315150217905550905050600190505b9392505050565b6000604051905090565b600080fd5b600080fd5b600080fd5b600080fd5b6000601f19601f8301169050919050565b7f4e487b7100000000000000000000000000000000000000000000000000000000600052604160045260246000fd5b610519826104d0565b810181811067ffffffffffffffff82111715610538576105376104e1565b5b80604052505050565b600061054b6104b2565b90506105578282610510565b919050565b600067ffffffffffffffff821115610577576105766104e1565b5b610580826104d0565b9050602081019050919050565b82818337600083830152505050565b60006105af6105aa8461055c565b610541565b9050828152602081018484840111156105cb576105ca6104cb565b5b6105d684828561058d565b509392505050565b600082601f8301126105f3576105f26104c6565b5b813561060384826020860161059c565b91505092915050565b600060208284031215610622576106216104bc565b5b600082013567ffffffffffffffff8111156106405761063f6104c1565b5b61064c848285016105de565b91505092915050565b600081519050919050565b600082825260208201905092915050565b60005b8381101561068f578082015181840152602081019050610674565b60008484015250505050565b60006106a682610655565b6106b08185610660565b93506106c0818560208601610671565b6106c9816104d0565b840191505092915050565b60008115159050919050565b6106e9816106d4565b82525050565b60006080820190508181036000830152610709818761069b565b9050818103602083015261071d818661069b565b90508181036040830152610731818561069b565b905061074060608301846106e0565b95945050505050565b600080604083850312156107605761075f6104bc565b5b600083013567ffffffffffffffff81111561077e5761077d6104c1565b5b61078a858286016105de565b925050602083013567ffffffffffffffff8111156107ab576107aa6104c1565b5b6107b7858286016105de565b9150509250929050565b60006020820190506107d660008301846106e0565b92915050565b6000806000606084860312156107f5576107f46104bc565b5b600084013567ffffffffffffffff811115610813576108126104c1565b5b61081f868287016105de565b935050602084013567ffffffffffffffff8111156108405761083f6104c1565b5b61084c868287016105de565b925050604084013567ffffffffffffffff81111561086d5761086c6104c1565b5b610879868287016105de565b9150509250925092565b600081905092915050565b600061089982610655565b6108a38185610883565b93506108b3818560208601610671565b80840191505092915050565b60006108cb828461088e565b915081905092915050565b7f4e487b7100000000000000000000000000000000000000000000000000000000600052602260045260246000fd5b6000600282049050600182168061091d57607f821691505b6020821081036109305761092f6108d6565b5b50919050565b60008190508160005260206000209050919050565b6000815461095881610905565b6109628186610883565b9450600182166000811461097d5760018114610992576109c5565b60ff19831686528115158202860193506109c5565b61099b85610936565b60005b838110156109bd5781548189015260018201915060208101905061099e565b838801955050505b50505092915050565b60006109da828461094b565b915081905092915050565b60006020601f8301049050919050565b600082821b905092915050565b600060088302610a327fffffffffffffffffffffffffffffffffffffffffffffffffffffffffffffffff826109f5565b610a3c86836109f5565b95508019841693508086168417925050509392505050565b6000819050919050565b6000819050919050565b6000610a83610a7e610a7984610a54565b610a5e565b610a54565b9050919050565b6000819050919050565b610a9d83610a68565b610ab1610aa982610a8a565b848454610a02565b825550505050565b600090565b610ac6610ab9565b610ad1818484610a94565b505050565b5b81811015610af557610aea600082610abe565b600181019050610ad7565b5050565b601f821115610b3a57610b0b81610936565b610b14846109e5565b81016020851015610b23578190505b610b37610b2f856109e5565b830182610ad6565b50505b505050565b600082821c905092915050565b6000610b5d60001984600802610b3f565b1980831691505092915050565b6000610b768383610b4c565b9150826002028217905092915050565b610b8f82610655565b67ffffffffffffffff811115610ba857610ba76104e1565b5b610bb28254610905565b610bbd828285610af9565b600060209050601f831160018114610bf05760008415610bde578287015190505b610be88582610b6a565b865550610c50565b601f198416610bfe86610936565b60005b82811015610c2657848901518255600182019150602085019450602081019050610c01565b86831015610c435784890151610c3f601f891682610b4c565b8355505b6001600288020188555050505b50505050505056fea2646970667358221220d3b75427378bf8269d9784fbeaa351ef44c94e854cfb94cbb31e72d7142c7f3064736f6c63430008130033",
  "immutableReferences": {},
  "source": "// SPDX-License-Identifier: MIT\r\npragma solidity >=0.4.22 <0.9.0;\r\n\r\ncontract poultry {\r\n    struct User {\r\n        string fullname;\r\n        string email;\r\n        string password;\r\n        bool exists;\r\n    }\r\n\r\n    mapping(string => User) private users; // email -> User\r\n\r\n    constructor() public {\r\n    }\r\n\r\n    function addUser(string memory _fullname, string memory _email, string memory _password) public returns (bool) {\r\n        // Check if user already exists\r\n        if(users[_email].exists) {\r\n            return false;\r\n        }\r\n\r\n        // Add new user\r\n        users[_email] = User({\r\n            fullname: _fullname,\r\n            email: _email,\r\n            password: _password,\r\n            exists: true\r\n        });\r\n\r\n        return true;\r\n    }\r\n\r\n    function getUserByEmail(string memory _email) public view returns (string memory, string memory, string memory, bool) {\r\n        User memory user = users[_email];\r\n        return (user.fullname, user.email, user.password, user.exists);\r\n    }\r\n\r\n    function userLogin(string memory _email, string memory _password) public view returns (bool) {\r\n        // Check if user exists and password matches\r\n        if(users[_email].exists && \r\n           keccak256(abi.encodePacked(users[_email].password)) == keccak256(abi.encodePacked(_password))) {\r\n            return true;\r\n        }\r\n        return false;\r\n    }\r\n}\r\n",
  "sourcePath": "C:\\Users\\Sudheer\\Desktop\\KITS-IT-Poultry-project\\contracts\\poultry.sol",
  "compiler": {
    "name": "solc",
    "version": "0.8.19+commit.7dd6d404.Emscripten.clang"
  },
  "schemaVersion": "3.4.16",
  "updatedAt": "2025-03-19T05:54:44.775Z",
  "networkType": "ethereum",
  "devdoc": {
    "kind": "dev",
    "methods": {},
    "version": 1
  },
  "userdoc": {
    "kind": "user",
    "methods": {},
    "version": 1
  }
}